:020000040000FA
:100000000213C17E1DE4FDEF30E70625E06EFF80A0
:1000100004EF25E0FF0DBD08EE2253984FEB4F4D46
:10002000F598220213317597A522220217168E59D0
:100030008F5A8C5B8D5C121894121AD7E55C24BF22
:100040009000CEF0E55B34FF9000CDF09000C9E564
:1000500059F0A3E55AF04391042222021450121BD6
:100060006853D87853DAFE121B33E4900080F022F4
:10007000D2DE22021769D202121A0BC290C296C2B5
:1000800080E4FBFD7F1012001A12068874A4F0D2DF
:10009000AF1216FDD2969000C6E004F070069000F4
:1000A000C5E004F09000C5E0B427E9A3E0B410E493
:1000B000C29612002630020912194F8E3B8F3C80E7
:1000C00006753B01753C00E53C7004E53B6401703E
:1000D000469000AEE070061216FE02029A9000C52D
:1000E000E475F001120A5EFED3E5F09410EE942759
:1000F0004002D296D39000C6E094309000C5E094C0
:1001000075500302029AE4F0A3F09000AEF0900064
:1001100095F0C29602029A1216FD9000AEE01460AD
:100120002A14700302026C14700302022A14700372
:100130000202402404600302029AE53C64AA6003C0
:1001400002029A9000AE04F002029AE53C900095FB
:10015000F09000AE7402F0E53C120B860214A00190
:1001600081A10191A501B8A601C6A701CFA801EE02
:10017000A901D5B001DEB101A9C0029AFF000002B9
:100180001F12063FE4900094F0900074F07FA1806D
:100190006D12005E9000AE7404F09000C47408F01C
:1001A000E4F53E753D0902029A9000AE7404F0E455
:1001B000F53E753D0202029A1216E87FA61206B8B5
:1001C00074A6F002029A12068874A4F002029A90B1
:1001D00000C47408F09000AE7403F002029A90001C
:1001E000747401F07FB11206B8EFF002029A1206A1
:1001F0003F900094E09000C3F01216E87FA9121916
:100200001890007AEFF07D307C757F017E00121926
:10021000E202029A12069A90007AEFF0E48005E476
:10022000900095F09000AEF08070E4F53EE53CF56E
:100230003DE53DD394009000AE402C7404F0805A0C
:100240007403253EF582E43400F583E53CF0053E79
:10025000E53EB53D059000AE800DE53EC39470408F
:1002600039753D709000AE7402F0802EE53C645507
:1002700070289000AEF0C202900095E024606018F3
:1002800024FC600F24FE600B14600824F660042434
:100290001070077FA0121ABED202900095E0120BD8
:1002A0008602C3A102EDA402FFA503A4A603BEA873
:1002B0000580A905B7B00628B10371C00392FF00FD
:1002C0000000B290007FE030E70F7DC87C0012068E
:1002D000717FA312184F02059A121B2B40030200D4
:1002E000B27DE87C031206717FA202062090007F97
:1002F000E020E7030200B27FA412184F0203B69079
:1003000000AEE060030200B21217056043240360F0
:10031000030200B21206BF900005E0FAA3E0FBFF63
:10032000AE021216F4900007E0F8A3E088838583FC
:1003300047F548858349F54A900005E0F54BA3E071
:10034000F54CE4F54D754E18F54F75500602055203
:100350009000C4E0601112170C500302056E1206E3
:10036000A3121B5602056E12069AC2807FA00206D7
:10037000209000AEE060030200B21216F47F017E0E
:10038000001219E2D296121B56C2967FA0121ABE14
:10039000800A7F02121ABEE49000AEF0D20212066A
:1003A000AF0200B290007FE020E7030200B2547F6A
:1003B000FD7FA61217BCE490007FF00200B290000F
:1003C000AEE060030200B212170570030205582464
:1003D0000360030200B2900003E0FF248070057503
:1003E0003FFF80028F3F1206BF900003E0648060F1
:1003F0000302047BA3E0FCA3E0FD900008E0FAA365
:10040000E0FBFFAE021209C1C006C007900006E083
:10041000FCA3E0FDAF03AE021209C1C006C0079005
:10042000000AE0FF7E00900008E0FCA3E0FD120956
:10043000C1C006C00790000B1216E1C007C00690AD
:10044000000C1216E1AA06AB0790000D1216E18E01
:100450004B8F4C8A498B4AD047D04890000EE0F52C
:100460004DA3E0F54EA3E0F54F75500ED003D0023A
:10047000D005D004D007D006020552E53FF4700342
:100480000205E21216DA247BF582E4341BF583E4DC
:1004900093FF7E001216DA247EF582E4341BF58386
:1004A000E493FA740193FDAC021209C1C006C007BF
:1004B0001216DA247CF582E4341BF583E4931216D9
:1004C000E2C006C0071216DA2480F582E4341B125B
:1004D00016BAC006C0071216DA2481F582E4341B6E
:1004E0001216BAC007C0061216DA2482F582E43466
:1004F0001B1216BAAA06AB071216DA2483F582E499
:10050000341B1216BA1216DA247DF582E4341BF578
:1005100083E493FD1216DA2484F582E4341BF58318
:10052000E493FC1216DA2487F582E4341BF583E4A5
:1005300093F54F8C4E8D4D8E4B8F4C8A498B4AD004
:1005400047D048755001D003D002D005D004D00761
:10055000D0061214D50200B29000C4E06018E53F46
:10056000F4600B12170C40061206A3121B56E490FF
:100570000080F00200B21206AFC2807FA002062007
:1005800090007FE030E71D7DC87C0012065290008D
:100590007FE0547FFD7FAB1217BCE490007FF0D268
:1005A000020200B2121B2B40030200B27DE87C0362
:1005B0001206527FAA8069900003E025E0F5409082
:1005C00000AEE060030200B212170560472403602A
:1005D000030200B212005EE5406007E53DC39404EB
:1005E0005008E4900095F00200B274052540F9E44B
:1005F0003400754401F5458946C3E53D954024FE28
:10060000F547900004E0F5487B017A007905121661
:10061000550200B290007AE0FF121918C2807FA044
:10062000121ABED2020200B290007FE020E703025D
:1006300000B27FB1121559E490007FF00200B27D44
:10064000327C007F017E001219E2D296121B56C244
:1006500096227F017E001219E2D296121B56C29694
:100660009000C3E0900094F090007AE0FF12191817
:10067000227F017E001219E2D296121B56C296907A
:10068000007AE0FF12191822E4900094F0900074B0
:10069000F07FA412191890007A2290007AE0FF12DD
:1006A000191822EFFD7C007F017E001219E22290D2
:1006B000007AE0FF1219182212191890007A22907D
:1006C00000C4E014F012005E228C228D238A248B59
:1006D00025AE07900080E014607F0460030209519A
:1006E00090007FE06003020951C3E5239414E522E2
:1006F0009405500EC3E5259414E524940550030297
:100700000951900094E0FFAD0685242C85252DAB82
:1007100023AA221218D890007DEFF06480700302A3
:100720000951900001E524F0A3E525F090008374C1
:1007300008F0E4900075F090007CF0F508F509FEF3
:100740007F70FD7B017A007903120BACE490007B93
:10075000F0D29090008004F02290007DE0FD75F0D2
:100760000DA424FAF582E4341B120DDBFC74019312
:10077000120EA590007DE075F00DA424F2F582E440
:10078000341BF583E493FFD39400400B90007CE08E
:100790009F5004E004F02290007DE0F96053FD12C8
:1007A0000EF5120DDB120F169000B3120E5024F648
:1007B000F582E4341B120E5B1209C19000B5120ED3
:1007C0005024F7F582E4341BF583E493FFE9120D1E
:1007D000E1120F169000B7120E5024F8F582E4349F
:1007E0001B120E5B1209C19000B9EEF0A3EFF0806E
:1007F0003E900078E0FEA3E0FF9000B3EEF0A3EFA0
:10080000F0900081E0FCA3E0FD9000B5ECF0A3EDDA
:10081000F0A3ECF0A3EDF0A3120E5024FAF582E45D
:10082000341B120E5B900078E0FCA3E0120EA59042
:100830000083E014F0900075E004F0AE22AF23E4F2
:10084000FCFD9000BB120B7AAE24AF25E4FCFD90BA
:1008500000BF120B7A120EB59000B3120952500E5F
:100860009000BF120EB89000B5120952400CC3128E
:100870000F015020120DF3B5071A900078E522F011
:10088000A3E523F0C290D3120F03406A85220885A6
:1008900023098062120EB59000B712096A500E90BB
:1008A00000BF120EB89000B912096A400CD3120FA3
:1008B000014033120DF36F702D900081E522F0A3FB
:1008C000E523F0D290120E33C083C082E0FF900087
:1008D00083E0FE7401A806088002C333D8FC4FD021
:1008E00082D083F08010E490007FF0C290A3F0905B
:1008F000007D7480F022900083E07012120E33129B
:100900000E8CFF120003EFF09000837408F0120DBC
:10091000F36F703D121B235005E490007EF0120E21
:10092000896027121B337D207C037F017E00121912
:10093000B990007BE090007EF090007DE090007F19
:10094000F04480F090007D7480F0C290E4900080CC
:10095000F022FFE0FCA3E0FDC3EF9DFFEE9CFE1242
:100960001AEFC3EF9527EE952622FFE0FCA3E0FDEA
:10097000C3EF9DFFEE9CFE121AEFC3EF9527EE9595
:100980002622BB010CE58229F582E5833AF583E056
:10099000225006E92582F8E622BBFE06E92582F808
:1009A000E222E58229F582E5833AF583E49322BBCE
:1009B000010689828A83F0225002F722BBFE01F3EE
:1009C00022EF8DF0A4A8F0CF8CF0A428CE8DF0A457
:1009D0002EFE22BC000BBE0029EF8DF084FFADF08F
:1009E00022E4CCF875F008EF2FFFEE33FEEC33FC79
:1009F000EE9DEC984005FCEE9DFE0FD5F0E9E4CEAF
:100A0000FD22EDF8F5F0EE8420D21CFEADF075F07D
:100A100008EF2FFFED33FD4007985006D5F0F22286
:100A2000C398FD0FD5F0EA22C2D5EC30E709B2D564
:100A3000E4C39DFDE49CFCEE30E715B2D5E4C39F12
:100A4000FFE49EFE1209D3C3E49DFDE49CFC8003F9
:100A50001209D330D507C3E49FFFE49EFE22C5F000
:100A6000F8A3E028F0C5F0F8E5821582700215833E
:100A7000E038F022BB0110E58229F582E5833AF5E2
:100A800083E0F5F0A3E0225009E92582F886F0081A
:100A9000E622BBFE0AE92582F8E2F5F008E222E54B
:100AA000832AF583E993F5F0A3E9932275F008759D
:100AB0008200EF2FFFEE33FECD33CDCC33CCC58299
:100AC00033C5829BED9AEC99E58298400CF582EE55
:100AD0009BFEED9AFDEC99FC0FD5F0D6E4CEFBE43D
:100AE000CDFAE4CCF9A88222B800C1B90059BA0005
:100AF0002DEC8BF084CFCECDFCE5F0CBF97818EF60
:100B00002FFFEE33FEED33FDEC33FCEB33FB10D760
:100B100003994004EB99FB0FD8E5E4F9FA22781821
:100B2000EF2FFFEE33FEED33FDEC33FCC933C9107C
:100B3000D7059BE99A4007EC9BFCE99AF90FD8E0AE
:100B4000E4C9FAE4CCFB2275F010EF2FFFEE33FE80
:100B5000ED33FDCC33CCC833C810D7079BEC9AE8F3
:100B600099400AED9BFDEC9AFCE899F80FD5F0DA74
:100B7000E4CDFBE4CCFAE4C8F922ECF0A3EDF0A359
:100B8000EEF0A3EFF022D083D082F8E493701274D9
:100B90000193700DA3A393F8740193F5828883E405
:100BA000737402936860EFA3A3A380DFEF4E60121B
:100BB000EF60010EEDBB010B89828A83F0A3DFFC9D
:100BC000DEFA2289F05007F709DFFCA9F022BBFE0C
:100BD000FCF309DFFCA9F0228F228C238D249000E6
:100BE00080E014604A147003020CB7240260030210
:100BF0000DA6C29090007FE06003020DA6AF24AE68
:100C000023121AB04003020DA6E4F525E525120DC6
:100C1000AAE4F0A3F00525E525B408F0E49000006F
:100C2000F0F525120ED19000807401F0D290229040
:100C30000076E0FCA3E0FDAE047802CEC313CE1331
:100C4000D8F92DFFEC3EFED3E5249FE5239E400915
:100C5000120ED1E4900000F022AF24AE2312180847
:100C6000501F900000E094004017E4900073F09053
:100C700000837404F0E490007BF09000807402F034
:100C800022C3E5249464E52394005003020D9712D7
:100C90000F201211E85003020DA6900000E0120D83
:100CA000AA120ED4900000E004F0E0D394085003A0
:100CB000020DA6E4020DA1B290120F2012128F5065
:100CC00060900083E0B40413120EBF4525C454F0B5
:100CD000120DCCEFF0E4900083F022900073E0FF5F
:100CE000120DD1E0FE120EBF4525540FFDEE4DF062
:100CF00074032F120DD3120E8CFF120003EFF0902D
:100D00000073E004F09000837404F0900073E0D36B
:100D100094705003020DA6121B33E4900000020DE4
:100D2000A1AF24AE231218085070121B235005E403
:100D300090007EF0120E89605C121B337DF47C0102
:100D40007F017E001219B990007BE090007EF09048
:100D50000083E0701E120DCDC083C082E0FF120E32
:100D6000BFFE900000E04E540FFEEF4ED082D083C5
:100D7000F08013120EBFFF900000E04FC454F04407
:100D80000F120DCCEFF0900073E0FF120F3C9000BB
:100D90007FE04480F0C290E48008121B33E49000AE
:100DA00000F0900080F022FCE52B25E02484F58201
:100DB000E43400F583228E398F3AE53075F00DA4C6
:100DC00024F1F582E4341BF583E49322FF90007351
:100DD000E02403F582E43400F58322F583E493FFF5
:100DE000ED7E0075F00DA424F3F582E4341BF58349
:100DF000E4932290007DE075F00DA424F9F582E4DF
:100E0000341BF583E493FF900075E0227C007D6441
:100E10001209D37C007D0A1209C1D3EF94F4EE9439
:100E20000122EF75F00DA424FCF582E4341BF58358
:100E3000E49322900075E024FFFFE434FFFE7C0081
:100E40007D08120A2874032FF58274003EF5832270
:100E5000EEF0A3EFF0E975F00DA422F583E493FF23
:100E60007E0022E4F9C3ED9BF582EC9AF583D3EF83
:100E70009582EE958322FFE53075F00DA424F0F500
:100E800082E4341BF583E4932290007EE0FF90001F
:100E90007BE06F22E0FCA3E0FDEC547FFAD3ED94FD
:100EA00000EA940022FD1209C17C007D641209D37E
:100EB0008E268F27229000BBA3A3E0FEA3E022E5AD
:100EC0002233333354F822FF7E00AC37AD380209A9
:100ED000C1900076E523F0A3E524F022852C34852B
:100EE0002D35AB2BAA2AAD2922ED2BFDEC3AFCC304
:100EF000EF9DEE9C2275F00DA424F5F582E4341BE1
:100F000022E5239509E522950822540F75F002A4E5
:100F1000F58285F08322FA740193FDAC020209C1C7
:100F20007B007A007925AF24AE2322E0FEA3E0FF08
:100F3000C322EC4480AF05F0A3EFF0228F26E4F546
:100F400028F527E5262401FFE433FEC3E5279FEEBD
:100F50006480F8748098503974032527120DD3E00B
:100F6000C45407FF120DAA120E944007EF120DAAE7
:100F7000120F3274032527120DD3E05407FF120D10
:100F8000AA120E944007EF120DAA120F3205278005
:100F9000B2E4F527900000E0FFE527C39F4003027D
:100FA0001058E527120DAAE030E70302104AAF27D8
:100FB000900000E0FEEFC39E4003021046EF25E0E4
:100FC0002486F582E43400F583E0FCA3E0FDEF1213
:100FD0000DAAECF0A3EDF0E4FEE5262401FDE433D8
:100FE000FCEEC39DEC6480F8748098505574032E19
:100FF000120DD3E0F9C45407FDEF2401FBE433FAEA
:10100000EDB50316E4B50212E9548FFDEFC454F0B8
:101010004DFD74032E120DD3EDF0EF2401FDE433EA
:10102000FC74032E120DD3E0F95407B50511E4B595
:10103000040DE954F84FFD74032E120DD3EDF00E9C
:1010400080970F020FB005288009E527120DAAE04E
:10105000547FF00527020F94900000E0C39528F01C
:10106000228F30E4F536120E226D6003AF3622E592
:10107000307028120DBA120E76FED39F400AEEFD94
:101080007C00AF03AE02800A120DBAFD7C00AE34C4
:10109000AF351209D38E378F38800CE530120DE34F
:1010A000F537740193F538120DBA120E76D39F40BE
:1010B0002E7C007D64AF03AE02120E1040070C7E42
:1010C000017FF48000120DB6120EC7AC06AD07AF5B
:1010D00003AE02AB3AAA39121A94EF602D8028AE03
:1010E00034AF35120E0C40070C7E017FF4800012E5
:1010F0000DB6120EC7AC06AD07AB3AAA39AF35AE86
:1011000034121AA2EF6003753601E5366401702EC1
:10111000E530120EF5120E5B120ECA900078EEF05A
:10112000A3EFF0E53075F00DA424F7F582E4341B4D
:10113000120E5B1209C1900081EEF0A3EFF0AF3602
:1011400022AFFBAEFC7C007D0A1209C19000B1EE1B
:10115000F0A3EFF09000B1120F2B9464EE940050C6
:10116000030211E730933D8E0A8F0BC3EF950DF507
:1011700011EE950CF510900074E014601F04706778
:1011800090007DE0FF64806007120E2264016057CA
:10119000AB11AA10AD0FAC0EE4FF803FAD11AC1047
:1011A000E4FF80409000B1E0FEA3E08E0CF50DC39B
:1011B000950BF50FEE950AF50E900074E014601E85
:1011C00004702490007DE0FF64806005120E2260B0
:1011D00016AB0FAA0EAD11AC107F010206C9AD0F00
:1011E000AC0E7F01120BD8228E268F278B288A29DE
:1011F000892AC20012128F5005D20002128CE4F527
:101200002B900000E0FFE52BC39F400302128C12DD
:101210000DA8E0FCA3E0FDAE047803CEC313CE130B
:10122000D8F9FBAA06EDAE047802CEC313CE13D8CC
:10123000F92BFDEE3A120DA7E0C4F854F0C868FE91
:10124000A3E0C4540F482DFFEC3EFEC3E5279FFDED
:10125000E5269E120DA7E0FAA3E0FBD39DEA9C4091
:1012600026E5272FFFE5263EFEC3EB9FEA9E50179B
:10127000E52A45294528600BAB28AA29A92AE52B90
:101280001209AFD2008005052B021201A200228EA6
:101290002C8F2D8B2E8A2F8930C201E4F5319000DE
:1012A00000E0FFE531C39F400302132EE52DAE2C75
:1012B0007803CEC313CE13D8F9FDAC06E52DAE2CC2
:1012C0007802CEC313CE13D8F92DF533EE3CF532A8
:1012D000E531120DAA120F2B9533EE953250028094
:1012E00004AE32AF338E328F33E531120DAA120FB6
:1012F0002B9533FDEE9532FCC3ED952DEC952C50DE
:1013000028E5332FFFE5323EFEC3E52D9FE52C9EF9
:101310005017E530452F452E600BAB2EAA2FA93074
:10132000E5311209AFD2018005053102129EA201FA
:1013300022C0E0C0F0C083C082C0D075D000C00021
:10134000C001C002C003C004C005C006C007E598C4
:101350005403F55DF45298E55D30E017121B71906F
:1013600000AD121A4EEFF09000ADE004F0E0B414BE
:1013700002E4F0E55D30E12E9000B0E0D39400404F
:101380001A9000ACE0245EF8E6FF121B6E9000ACF1
:10139000E004F09000B0E014F08002D2039000ACC2
:1013A000E0B42002E4F0D007D006D005D004D0038A
:1013B000D002D001D000D0D0D082D083D0F0D0E005
:1013C0003212005A787FE4F6D8FD75817D02140B45
:1013D000020076E493A3F8E493A34003F68001F2BD
:1013E00008DFF48029E493A3F85407240CC8C3331E
:1013F000C4540F4420C8834004F456800146F6DFED
:10140000E4800B01020408102040809015DBE47E8C
:10141000019360BCA3FF543F30E509541FFEE493E1
:10142000A360010ECF54C025E060A840B8E493A3A8
:10143000FAE493A3F8E493A3C8C582C8CAC583CAD3
:10144000F0A3C8C582C8CAC583CADFE9DEE780BE8B
:10145000C0E0C0F0C083C082C0D075D000C000C062
:1014600001C002C003C004C005C006C007E5D854CF
:1014700087F521F452D8E5F730E508E5F730E603C3
:10148000121B7853F7DFE52130E708E5D930E00398
:10149000121B77E52130E008E5DA30E00312114154
:1014A000E52130E108E5DB30E003121B79E521306E
:1014B000E208E5DC30E003121B7AD007D006D00545
:1014C000D004D003D002D001D000D0D0D082D083BD
:1014D000D0F0D0E0328A458B468D828C83AD07AC4C
:1014E00006855052755380AB82AA83AF4F1219857F
:1014F000E54DD39400401BE4F551E551C3954D50A3
:1015000011AB4CAA4BAD4AAC49AF4F1219850551EE
:1015100080E8E4F551E551C3954E503474032552EB
:10152000120DD3E05553600AAB4CAA4BAD4AAC49FF
:101530008008AB48AA47AD46AC45AF4F121985E5C8
:1015400053C313F55370050552755380055180C57B
:10155000C2909000807403F022AE07E4F541121AA5
:1015600032900000E004FF121A621215D4900000BD
:10157000E0FFE541C39F5012121A42121A5E121A7E
:1015800042F583121A3C054180E3900076E0FF1299
:101590001A62900076121A3C1215D4E4F5419000BC
:1015A00073E02401FFE433FEC3E5419FEE6480F85D
:1015B000748098501774032541121A590541E5416A
:1015C000541F70DA121B6B121B6480D27F55121AE3
:1015D00062021B6B121B6B121B64224200CB0000C9
:1015E0004200C700004200CD00004200C900004197
:1015F000007F004100800041009480410074004160
:10160000007D8041007A004200010000420081001C
:101610000042007800004100830041007500410055
:101620007C004100730041007E0041007B004100CE
:1016300000004100AD004100AF004100AB0041009F
:10164000AC004100B0004100AA00C1034100AE005F
:1016500041009500008B418A428943E4F549E54900
:10166000C395475045AB41AA42A943C003C002C03D
:1016700001AB44AA45A946854982758300120982B7
:10168000FFC4120F0AD001D002D003120A74FDACBD
:10169000F0AB41AA42A943EF120F0A120A74FBAA47
:1016A000F0E4FF121985054980B4AF481548EF7082
:1016B000AAC2909000807403F022F583E493FF7E29
:1016C00000E53F75F00DA4247EF582E4341BF5831C
:1016D000E493FC740193FD0209C1E53F75F00DA48C
:1016E00022E0FF7E000209C19000947480F0E49033
:1016F0000074F022900003E0FCA3E0FD22E49000DF
:10170000C5F0A3F022900080E024FD22901B86E427
:1017100093FFD3940022C0E0C083C082C0D075D0B4
:1017200000C004C005C006C00753C87F9000CBE0CE
:10173000FEA3E0FF4E700353C8FB9000C71218CD04
:1017400050099000CBE4F0A3F0800DC39000CCE0F2
:101750009DF09000CBE09CF0D007D006D005D004DF
:10176000D0D0D082D083D0E032C0E0C083C082C06D
:10177000D075D000C004C005C006C00753917F904B
:1017800000CDE0FEA3E0FF4E70035391FB9000C933
:101790001218CD50099000CDE4F0A3F0800DC39055
:1017A00000CEE09DF09000CDE09CF0D007D006D0B8
:1017B00005D004D0D0D082D083D0E032AE05AD07C2
:1017C000E4FCFB7FAA121A62AF05121A62EE75F0F2
:1017D0000DA4246EF582E4341CF583E493FFECC37E
:1017E0009F500774082CFC0B80F4EB04FF121A3492
:1017F000E4FCECC39B500974032C121A590C80F2C0
:101800007F55121A62021B6BAB07AA06900076E0A6
:10181000FEA3E0FF120E0C40050C7DF48004AC0624
:10182000AD07AE04AF05C3900077E09FFD90007652
:10183000E09EFCC3ED9BEC9A5013A3E02FFF9000B9
:1018400076E03EFEC3EB9FEA9E50028001C322AECB
:1018500007E4FDF541121A32900001E0FF121A620E
:10186000900001121A3C900078E0FF121A6290007A
:1018700078121A3C900081E0FF121A6290008112E7
:101880001A3C74032D121A590DBD03F67F55121A16
:1018900062021B6BAB07AA06E4F9F87F407E427D2B
:1018A0000FFC120AE8A804A905AA06AB077F207E50
:1018B000D77D757C01120AE8C3E49FFFE49EFE22F7
:1018C000AB07AA06E4F9F87FE87E03FD22E0FCA35B
:1018D000E0FDC3EF9DEE9C228F288D298A2A8B2B59
:1018E000752E80E5282480701EE4F52F120EDCAFE3
:1018F0002F121061EF6005852F2E8019052FE52F1F
:10190000C3940940E7800E120EDCAF28121061EF7D
:10191000600385282EAF2E228F4190007AE0F54299
:101920007F0B121B7443DA011200707D0A7C007F6A
:10193000017E001219E2121B56E4900080F0900024
:101940007FF0900095E541F090007AF0AF42229050
:1019500000ADE0FF9000ABE0B507057E017F0022FF
:101960009000AB121A4EE0FD7C009000ABE004F05A
:10197000E0B41402E4F09000AAE0FEEE4204E4F0C9
:10198000AE04AF05228F548C558D568A578B58D292
:1019900090E554640124FF92807F0A7E0012002E9D
:1019A000121B56C290E55424FF9280AD58AC577F6D
:1019B0000A7E0012002E021B568E288F298C2A8D3B
:1019C0002B1218C01218A1121ACB9000CBE52AF0E6
:1019D000A3E52BF09000C7E528F0A3E529F043C864
:1019E00004228E438F448C458D461218C01218A1D4
:1019F000121AD79000CDE545F0A3E546F09000C956
:101A0000E543F0A3E544F04391042212002A121B9F
:101A10003A121B41121AFB121B5C121A7E121B197E
:101A2000121B05121B0F121AE3121B48121B600235
:101A30001B4F7FAA121A62AF06021A62A3E0FF02CE
:101A40001A62E54125E02484F582E4340022E02492
:101A500096F582E43400F58322F582E43400F583C0
:101A6000E0FFC2039000AFE0B42002E4F09000AFCA
:101A7000E0245EF8A607E004F0A3E004F022AF88BB
:101A80005388AF758CA0758DCBEF5440FEEF54108A
:101A90004E428822120E634006120EE9500109AF31
:101AA0000122120E634006120EE9500109AF012215
:101AB000C3EF9414EE94054003D38001C322AE0714
:101AC000121A327F55121A62021B6BAD07AC06EC7C
:101AD000F5CBAF058FCA22AD07AC06ECF593AF0589
:101AE0008F9222C2DE75D90575F9FF75960122EE37
:101AF00030E707C3E49FFFE49EFE2275E34075E1F3
:101B00000175E20122E59154045391FB4291227543
:101B10008E5475892243885022E5C8540453C8FB6B
:101B200042C822E5C8C320E201D322E591C320E2E6
:101B300001D32253C8FB53C87F2275A41175D4CF9B
:101B40002275A54175D5772253F77F75DA30227556
:101B5000E69075A8B022E59120E2FB22E4F5A922E7
:101B6000439810223003FD22C2DE22D299228F999F
:101B700022AF99228F8C2222222222011F00015E95
:101B800001030301183C00000D0400017201020270
:101B900001283C0800081700018601030301183CD6
:101BA00000001F0A00012C01030301183C00000083
:101BB0003B0701F403020102403C00000712000150
:101BC0009001030301183C000017010001C201024B
:101BD0000201183C000124010000D2010202010CA4
:101BE0003C0001110201012C01020201403C0000F5
:101BF000011F00015E01030301183C00000D0400F9
:101C0000017201020201283C080008170001860148
:101C1000030301183C00001F0A00012C010303010B
:101C2000183C0000003B0701F403020102403C00A5
:101C300000071200019001030301183C0000170186
:101C40000001C201020201183C000124010000D27F
:101C5000010202010C3C0001110201012C010202EF
:101C600001403C0000011F00015E01030301183C1C
:101C700000000D0400017201020201283C08000866
:101C80001700018601030301183C00001F0A000130
:101C90002C01030301183C0000003B0701F4030280
:101CA0000102403C000007120001900103030118EB
:101CB0003C000017010001C201020201183C0001B2
:101CC00024010000D2010202010C3C0001110201BA
:0A1CD000012C01020201403C00005B
:00000001FF
