:020000040000FA
:100000000213C47E1DE4FDEF30E70625E06EFF809D
:1000100004EF25E0FF0DBD08EE2253984FEB4F4D46
:10002000F598220213347597A522220217248E59BF
:100030008F5A8C5B8D5C1218A2121AF6E55C24BFF5
:100040009000CEF0E55B34FF9000CDF09000C9E564
:1000500059F0A3E55AF04391042222021453121BD3
:100060008753D87853DAFE121B52E4900080F022B6
:10007000D2DE22021777D202121A19C290C296C299
:1000800080E4FBFD7F1012001A12068874A4F0D2DF
:10009000AF12170BD2969000C6E004F070069000E5
:1000A000C5E004F09000C5E0B427E9A3E0B410E493
:1000B000C29612002630020912195D8E3B8F3C80D9
:1000C00006753B01753C00E53C7004E53B6401703E
:1000D000469000AEE0700612170C02029A9000C51E
:1000E000E475F001120A5EFED3E5F09410EE942759
:1000F0004002D296D39000C6E094309000C5E094C0
:1001000075500302029AE4F0A3F09000AEF0900064
:1001100095F0C29602029A12170B9000AEE014609E
:100120002A14700302026C14700302022A14700372
:100130000202402404600302029AE53C64AA6003C0
:1001400002029A9000AE04F002029AE53C900095FB
:10015000F09000AE7402F0E53C120B860214A00190
:1001600081A10191A501B8A601C6A701CFA801EE02
:10017000A901D5B001DEB101A9C0029AFF000002B9
:100180001F12063FE4900094F0900074F07FA1806D
:100190006D12005E9000AE7404F09000C47408F01C
:1001A000E4F53E753D0902029A9000AE7404F0E455
:1001B000F53E753D0202029A1216F67FA61206B8A7
:1001C00074A6F002029A12068874A4F002029A90B1
:1001D00000C47408F09000AE7403F002029A90001C
:1001E000747401F07FB11206B8EFF002029A1206A1
:1001F0003F900094E09000C3F01216F67FA9121908
:100200002690007AEFF07D307C757F017E00121918
:10021000F002029A12069A90007AEFF0E48005E468
:10022000900095F09000AEF08070E4F53EE53CF56E
:100230003DE53DD394009000AE402C7404F0805A0C
:100240007403253EF582E43400F583E53CF0053E79
:10025000E53EB53D059000AE800DE53EC39470408F
:1002600039753D709000AE7402F0802EE53C645507
:1002700070289000AEF0C202900095E024606018F3
:1002800024FC600F24FE600B14600824F660042434
:100290001070077FA0121ADDD202900095E0120BB9
:1002A0008602C3A102EDA402FFA503A4A603BEA873
:1002B0000580A905B7B00628B10371C00392FF00FD
:1002C0000000B290007FE030E70F7DC87C0012068E
:1002D000717FA312185D02059A121B4A40030200A7
:1002E000B27DE87C031206717FA202062090007F97
:1002F000E020E7030200B27FA412185D0203B6906B
:1003000000AEE060030200B21217136043240360E2
:10031000030200B21206BF900005E0FAA3E0FBFF63
:10032000AE02121702900007E0F8A3E088838583ED
:1003300047F548858349F54A900005E0F54BA3E071
:10034000F54CE4F54D754E18F54F75500602055203
:100350009000C4E0601112171A500302056E1206D5
:10036000A3121B7502056E12069AC2807FA00206B8
:10037000209000AEE060030200B21217027F017EFF
:10038000001219F0D296121B75C2967FA0121ADDC8
:10039000800A7F02121ADDE49000AEF0D20212064B
:1003A000AF0200B290007FE020E7030200B2547F6A
:1003B000FD7FA61217CAE490007FF00200B2900001
:1003C000AEE060030200B212171370030205582456
:1003D0000360030200B2900003E0FF248070057503
:1003E0003FFF80028F3F1206BF900003E0648060F1
:1003F0000302047BA3E0FCA3E0FD900008E0FAA365
:10040000E0FBFFAE021209C1C006C007900006E083
:10041000FCA3E0FDAF03AE021209C1C006C0079005
:10042000000AE0FF7E00900008E0FCA3E0FD120956
:10043000C1C006C00790000B1216EFC007C006909F
:10044000000C1216EFAA06AB0790000D1216EF8EE5
:100450004B8F4C8A498B4AD047D04890000EE0F52C
:100460004DA3E0F54EA3E0F54F75500ED003D0023A
:10047000D005D004D007D006020552E53FF4700342
:100480000205E21216E8249AF582E4341BF583E4AF
:1004900093FF7E001216E8249DF582E4341BF58359
:1004A000E493FA740193FDAC021209C1C006C007BF
:1004B0001216E8249BF582E4341BF583E4931216AC
:1004C000F0C006C0071216E8249FF582E4341B1220
:1004D00016C8C006C0071216E824A0F582E4341B33
:1004E0001216C8C007C0061216E824A1F582E4342B
:1004F0001B1216C8AA06AB071216E824A2F582E45E
:10050000341B1216C81216E8249CF582E4341BF53D
:1005100083E493FD1216E824A3F582E4341BF583EB
:10052000E493FC1216E824A6F582E4341BF583E478
:1005300093F54F8C4E8D4D8E4B8F4C8A498B4AD004
:1005400047D048755001D003D002D005D004D00761
:10055000D0061214D80200B29000C4E06018E53F43
:10056000F4600B12171A40061206A3121B75E490D2
:100570000080F00200B21206AFC2807FA002062007
:1005800090007FE030E71D7DC87C0012065290008D
:100590007FE0547FFD7FAB1217CAE490007FF0D25A
:1005A000020200B2121B4A40030200B27DE87C0343
:1005B0001206527FAA8069900003E025E0F5409082
:1005C00000AEE060030200B212171360472403601C
:1005D000030200B212005EE5406007E53DC39404EB
:1005E0005008E4900095F00200B274052540F9E44B
:1005F0003400754401F5458946C3E53D954024FE28
:10060000F547900004E0F5487B017A007905121661
:10061000580200B290007AE0FF121926C2807FA033
:10062000121ADDD2020200B290007FE020E703023E
:1006300000B27FB112155CE490007FF00200B27D41
:10064000327C007F017E001219F0D296121B75C217
:1006500096227F017E001219F0D296121B75C29667
:100660009000C3E0900094F090007AE0FF12192609
:10067000227F017E001219F0D296121B75C296904D
:10068000007AE0FF12192622E4900094F0900074A2
:10069000F07FA412192690007A2290007AE0FF12CF
:1006A000192622EFFD7C007F017E001219F02290B6
:1006B000007AE0FF1219262212192690007A229061
:1006C00000C4E014F012005E228C228D238A248B59
:1006D00025AE07900080E014607F0460030209519A
:1006E00090007FE06003020951C3E5239414E522E2
:1006F0009405500EC3E5259414E524940550030297
:100700000951900094E0FFAD0685242C85252DAB82
:1007100023AA221218E690007DEFF0648070030295
:100720000951900001E524F0A3E525F090008374C1
:1007300008F0E4900075F090007CF0F508F509FEF3
:100740007F70FD7B017A007903120BACE490007B93
:10075000F0D29090008004F02290007DE0FD75F0D2
:100760000DA42419F582E4341C120DDBFC740193F2
:10077000120EA590007DE075F00DA42411F582E421
:10078000341CF583E493FFD39400400B90007CE08D
:100790009F5004E004F02290007DE0F96053FD12C8
:1007A0000F04120DDB120F199000B3120E50241516
:1007B000F582E4341C120E5B1209C19000B5120ED2
:1007C000502416F582E4341CF583E493FFE9120DFE
:1007D000E1120F199000B7120E502417F582E4347D
:1007E0001C120E5B1209C19000B9EEF0A3EFF0806D
:1007F0003E900078E0FEA3E0FF9000B3EEF0A3EFA0
:10080000F0900081E0FCA3E0FD9000B5ECF0A3EDDA
:10081000F0A3ECF0A3EDF0A3120E502419F582E43E
:10082000341C120E5B900078E0FCA3E0120EA59041
:100830000083E014F0900075E004F0AE22AF23E4F2
:10084000FCFD9000BB120B7AAE24AF25E4FCFD90BA
:1008500000BF120B7A120EB59000B3120952500E5F
:100860009000BF120EB89000B5120952400CC3128E
:100870000F105020120DF3B5071A900078E522F002
:10088000A3E523F0C290D3120F12406A8522088597
:1008900023098062120EB59000B712096A500E90BB
:1008A00000BF120EB89000B912096A400CD3120FA3
:1008B000104033120DF36F702D900081E522F0A3EC
:1008C000E523F0D290120E33C083C082E0FF900087
:1008D00083E0FE7401A806088002C333D8FC4FD021
:1008E00082D083F08010E490007FF0C290A3F0905B
:1008F000007D7480F022900083E07012120E33129B
:100900000E8CFF120003EFF09000837408F0120DBC
:10091000F36F703D121B425005E490007EF0120E02
:10092000896027121B527D207C037F017E001219F3
:10093000C790007BE090007EF090007DE090007F0B
:10094000F04480F090007D7480F0C290E4900080CC
:10095000F022FFE0FCA3E0FDC3EF9DFFEE9CFE1242
:100960001B0EC3EF9527EE952622FFE0FCA3E0FDCA
:10097000C3EF9DFFEE9CFE121B0EC3EF9527EE9575
:100980002622BB010CE58229F582E5833AF583E056
:10099000225006E92582F8E622BBFE06E92582F808
:1009A000E222E58229F582E5833AF583E49322BBCE
:1009B000010689828A83F0225002F722BBFE01F3EE
:1009C00022EF8DF0A4A8F0CF8CF0A428CE8DF0A457
:1009D0002EFE22BC000BBE0029EF8DF084FFADF08F
:1009E00022E4CCF875F008EF2FFFEE33FEEC33FC79
:1009F000EE9DEC984005FCEE9DFE0FD5F0E9E4CEAF
:100A0000FD22EDF8F5F0EE8420D21CFEADF075F07D
:100A100008EF2FFFED33FD4007985006D5F0F22286
:100A2000C398FD0FD5F0EA22C2D5EC30E709B2D564
:100A3000E4C39DFDE49CFCEE30E715B2D5E4C39F12
:100A4000FFE49EFE1209D3C3E49DFDE49CFC8003F9
:100A50001209D330D507C3E49FFFE49EFE22C5F000
:100A6000F8A3E028F0C5F0F8E5821582700215833E
:100A7000E038F022BB0110E58229F582E5833AF5E2
:100A800083E0F5F0A3E0225009E92582F886F0081A
:100A9000E622BBFE0AE92582F8E2F5F008E222E54B
:100AA000832AF583E993F5F0A3E9932275F008759D
:100AB0008200EF2FFFEE33FECD33CDCC33CCC58299
:100AC00033C5829BED9AEC99E58298400CF582EE55
:100AD0009BFEED9AFDEC99FC0FD5F0D6E4CEFBE43D
:100AE000CDFAE4CCF9A88222B800C1B90059BA0005
:100AF0002DEC8BF084CFCECDFCE5F0CBF97818EF60
:100B00002FFFEE33FEED33FDEC33FCEB33FB10D760
:100B100003994004EB99FB0FD8E5E4F9FA22781821
:100B2000EF2FFFEE33FEED33FDEC33FCC933C9107C
:100B3000D7059BE99A4007EC9BFCE99AF90FD8E0AE
:100B4000E4C9FAE4CCFB2275F010EF2FFFEE33FE80
:100B5000ED33FDCC33CCC833C810D7079BEC9AE8F3
:100B600099400AED9BFDEC9AFCE899F80FD5F0DA74
:100B7000E4CDFBE4CCFAE4C8F922ECF0A3EDF0A359
:100B8000EEF0A3EFF022D083D082F8E493701274D9
:100B90000193700DA3A393F8740193F5828883E405
:100BA000737402936860EFA3A3A380DFEF4E60121B
:100BB000EF60010EEDBB010B89828A83F0A3DFFC9D
:100BC000DEFA2289F05007F709DFFCA9F022BBFE0C
:100BD000FCF309DFFCA9F0228F228C238D249000E6
:100BE00080E014604A147003020CB7240260030210
:100BF0000DA6C29090007FE06003020DA6AF24AE68
:100C000023121ACF4003020DA6E4F525E525120DA7
:100C1000AAE4F0A3F00525E525B408F0E49000006F
:100C2000F0F525120EE09000807401F0D290229031
:100C30000076E0FCA3E0FDAE047802CEC313CE1331
:100C4000D8F92DFFEC3EFED3E5249FE5239E400915
:100C5000120EE0E4900000F022AF24AE231218162A
:100C6000501F900000E094004017E4900073F09053
:100C700000837404F0E490007BF09000807402F034
:100C800022C3E5249464E52394005003020D9712D7
:100C90000F231211EB5003020DA6900000E0120D7D
:100CA000AA120EE3900000E004F0E0D39408500391
:100CB000020DA6E4020DA1B290120F23121292505F
:100CC00060900083E0B40413120ECE4525C454F0A6
:100CD000120DCCEFF0E4900083F022900073E0FF5F
:100CE000120DD1E0FE120ECE4525540FFDEE4DF053
:100CF00074032F120DD3120E8CFF120003EFF0902D
:100D00000073E004F09000837404F0900073E0D36B
:100D100094705003020DA6121B52E4900000020DC5
:100D2000A1AF24AE231218165070121B425005E4D6
:100D300090007EF0120E89605C121B527DF47C01E3
:100D40007F017E001219C790007BE090007EF0903A
:100D50000083E0701E120DCDC083C082E0FF120E32
:100D6000CEFE900000E04E540FFEEF4ED082D083B6
:100D7000F08013120ECEFF900000E04FC454F044F8
:100D80000F120DCCEFF0900073E0FF120F3F9000B8
:100D90007FE04480F0C290E48008121B52E490008F
:100DA00000F0900080F022FCE52B25E02484F58201
:100DB000E43400F583228E398F3AE53075F00DA4C6
:100DC0002410F582E4341CF583E49322FF90007331
:100DD000E02403F582E43400F58322F583E493FFF5
:100DE000ED7E0075F00DA42412F582E4341CF58329
:100DF000E4932290007DE075F00DA42418F582E4C0
:100E0000341CF583E493FF900075E0227C007D6440
:100E10001209D37C007D0A1209C1D3EF94F4EE9439
:100E20000122EF75F00DA4241BF582E4341CF58338
:100E3000E49322900075E024FFFFE434FFFE7C0081
:100E40007D08120A2874032FF58274003EF5832270
:100E5000EEF0A3EFF0E975F00DA422F583E493FF23
:100E60007E0022E4F9C3ED9BF582EC9AF583D3EF83
:100E70009582EE958322FFE53075F00DA4240FF5E1
:100E800082E4341CF583E4932290007EE0FF90001E
:100E90007BE06F22E0FCA3E0FDEC547FFAD3ED94FD
:100EA00000EA940022FD1209C17C007D641209D37E
:100EB0008E268F27229000BBA3A3E0FEA3E022ABE7
:100EC00044AA45A946854A82758300020982E52223
:100ED00033333354F822FF7E00AC37AD380209C1FA
:100EE000900076E523F0A3E524F022852C34852DAF
:100EF00035AB2BAA2AAD2922ED2BFDEC3AFCC3EF32
:100F00009DEE9C2275F00DA42414F582E4341C227D
:100F1000E5239509E522950822FA740193FDAC02B8
:100F20000209C17B007A007925AF24AE2322E0FEBE
:100F3000A3E0FFC322EC4480AF05F0A3EFF0228FC3
:100F400026E4F528F527E5262401FFE433FEC3E572
:100F5000279FEE6480F87480985039740325271217
:100F60000DD3E0C45407FF120DAA120E944007EFF0
:100F7000120DAA120F3574032527120DD3E0540762
:100F8000FF120DAA120E944007EF120DAA120F3590
:100F9000052780B2E4F527900000E0FFE527C39F16
:100FA000400302105BE527120DAAE030E7030210B0
:100FB0004DAF27900000E0FEEFC39E4003021049B2
:100FC000EF25E02486F582E43400F583E0FCA3E01D
:100FD000FDEF120DAAECF0A3EDF0E4FEE5262401EE
:100FE000FDE433FCEEC39DEC6480F87480985055AA
:100FF00074032E120DD3E0F9C45407FDEF2401FB56
:10100000E433FAEDB50316E4B50212E9548FFDEFAF
:10101000C454F04DFD74032E120DD3EDF0EF2401F6
:10102000FDE433FC74032E120DD3E0F95407B5052B
:1010300011E4B5040DE954F84FFD74032E120DD3DD
:10104000EDF00E80970F020FB305288009E52712F7
:101050000DAAE0547FF00527020F97900000E0C32F
:101060009528F0228F30E4F536120E226D6003AF22
:101070003622E5307028120DBA120E76FED39F404C
:101080000AEEFD7C00AF03AE02800A120DBAFD7CB1
:1010900000AE34AF351209D38E378F38800CE5306F
:1010A000120DE3F537740193F538120DBA120E766E
:1010B000D39F402E7C007D64AF03AE02120E104021
:1010C000070C7E017FF48000120DB6120ED6AC061E
:1010D000AD07AF03AE02AB3AAA39121AB3EF602DD7
:1010E0008028AE34AF35120E0C40070C7E017FF421
:1010F0008000120DB6120ED6AC06AD07AB3AAA3977
:10110000AF35AE34121AC1EF6003753601E53664AF
:1011100001702EE530120F04120E5B120ED99000F2
:1011200078EEF0A3EFF0E53075F00DA42416F5820B
:10113000E4341C120E5B1209C1900081EEF0A3EFA3
:10114000F0AF3622AFFBAEFC7C007D0A1209C190E5
:1011500000B1EEF0A3EFF09000B1120F2E9464EE08
:10116000940050030211EA30933D8E0A8F0BC3EFB7
:10117000950DF511EE950CF510900074E014601FBC
:1011800004706790007DE0FF64806007120E2264A7
:10119000016057AB11AA10AD0FAC0EE4FF803FAD5C
:1011A00011AC10E4FF80409000B1E0FEA3E08E0C93
:1011B000F50DC3950BF50FEE950AF50E900074E052
:1011C00014601E04702490007DE0FF6480600512AE
:1011D0000E226016AB0FAA0EAD11AC107F010206F5
:1011E000C9AD0FAC0E7F01120BD8228E268F278B34
:1011F000288A29892AC2001212925005D2000212AE
:101200008FE4F52B900000E0FFE52BC39F40030225
:10121000128F120DA8E0FCA3E0FDAE047803CEC34C
:1012200013CE13D8F9FBAA06EDAE047802CEC31391
:10123000CE13D8F92BFDEE3A120DA7E0C4F854F006
:10124000C868FEA3E0C4540F482DFFEC3EFEC3E582
:10125000279FFDE5269E120DA7E0FAA3E0FBD39D94
:10126000EA9C4026E5272FFFE5263EFEC3EB9FEADA
:101270009E5017E52A45294528600BAB28AA29A9C5
:101280002AE52B1209AFD2008005052B021204A219
:1012900000228E2C8F2D8B2E8A2F8930C201E4F5EF
:1012A00031900000E0FFE531C39F4003021331E5B8
:1012B0002DAE2C7803CEC313CE13D8F9FDAC06E5C2
:1012C0002DAE2C7802CEC313CE13D8F92DF533EE04
:1012D0003CF532E531120DAA120F2E9533EE953200
:1012E00050028004AE32AF338E328F33E531120DAF
:1012F000AA120F2E9533FDEE9532FCC3ED952DEC21
:10130000952C5028E5332FFFE5323EFEC3E52D9F97
:10131000E52C9E5017E530452F452E600BAB2EAACD
:101320002FA930E5311209AFD20180050531021233
:10133000A1A20122C0E0C0F0C083C082C0D075D09D
:1013400000C000C001C002C003C004C005C006C088
:1013500007E5985403F55DF45298E55D30E0171207
:101360001B909000AD121A5CEFF09000ADE004F01D
:10137000E0B41402E4F0E55D30E12E9000B0E0D37B
:101380009400401A9000ACE0245EF8E6FF121B8D3A
:101390009000ACE004F09000B0E014F08002D203C2
:1013A0009000ACE0B42002E4F0D007D006D005D025
:1013B00004D003D002D001D000D0D0D082D083D0CE
:1013C000F0D0E03212005A787FE4F6D8FD75817DC6
:1013D00002140E020076E493A3F8E493A34003F60C
:1013E0008001F208DFF48029E493A3F85407240C69
:1013F000C8C333C4540F4420C8834004F45680014A
:1014000046F6DFE4800B01020408102040809015AE
:10141000DEE47E019360BCA3FF543F30E509541F16
:10142000FEE493A360010ECF54C025E060A840B84D
:10143000E493A3FAE493A3F8E493A3C8C582C8CACB
:10144000C583CAF0A3C8C582C8CAC583CADFE9DE9E
:10145000E780BEC0E0C0F0C083C082C0D075D000BD
:10146000C000C001C002C003C004C005C006C00760
:10147000E5D85487F521F452D8E5F730E508E5F7CB
:1014800030E603121B9753F7DFE52130E708E5D973
:1014900030E003121B96E52130E008E5DA30E00386
:1014A000121144E52130E108E5DB30E003121B981E
:1014B000E52130E208E5DC30E003121B99D007D0CB
:1014C00006D005D004D003D002D001D000D0D0D0B7
:1014D00082D083D0F0D0E0328A458B468D828C83D7
:1014E000AD07AC06855052755380AB82AA83AF4FCF
:1014F000121993E54DD39400401BE4F551E551C317
:10150000954D5011AB4CAA4BAD4AAC49AF4F121997
:1015100093055180E8E4F551E551C3954E5034747C
:10152000032552120DD3E05553600AAB4CAA4BADC4
:101530004AAC498008AB48AA47AD46AC45AF4F120C
:101540001993E553C313F553700505527553800580
:101550005180C5C2909000807403F022AE07E4F57C
:1015600041121A40900000E004FF121A701215D7C1
:10157000900000E0FFE541C39F5012121A50121A6A
:101580006C121A50F583121A4A054180E3900076D6
:10159000E0FF121A70900076121A4A1215D7E4F57D
:1015A00041900073E02401FFE433FEC3E5419FEE68
:1015B0006480F8748098501774032541121A6705E7
:1015C00041E541541F70DA121B8A121B8380D27FBF
:1015D00055121A70021B8A121B8A121B83224200A8
:1015E000CB00004200C700004200CD00004200C90D
:1015F000000041007F0041008000410094804100D4
:10160000740041007D8041007A00420001000042E8
:101610000081000042007800004100830041007515
:101620000041007C004100730041007E0041007BCE
:1016300000410000004100AD004100AF004100AB9F
:10164000004100AC004100B0004100AA00C10341CC
:1016500000AE0041009500008B418A4289437549E4
:1016600001E4F54AE54AC39547502B120EBFC45416
:101670000FFF640F60091216A670027F018F4912D6
:101680000EBFFF540F640F60091216A670027F018F
:101690008F49054A80CEAF481548EF70C1C290907F
:1016A00000807403F022AB41AA42A943EF540775AE
:1016B000F002A4F58285F083120A74FDACF0AF4904
:1016C000121AA2E5497F0022F583E493FF7E00E52C
:1016D0003F75F00DA4249DF582E4341BF583E4935B
:1016E000FC740193FD0209C1E53F75F00DA422E0F1
:1016F000FF7E000209C19000947480F0E4900074B1
:10170000F022900003E0FCA3E0FD22E49000C5F08D
:10171000A3F022900080E024FD22901BA5E493FF1B
:10172000D3940022C0E0C083C082C0D075D000C076
:1017300004C005C006C00753C87F9000CBE0FEA3DD
:10174000E0FF4E700353C8FB9000C71218DB50092E
:101750009000CBE4F0A3F0800DC39000CCE09DF0AE
:101760009000CBE09CF0D007D006D005D004D0D0BC
:10177000D082D083D0E032C0E0C083C082C0D075B8
:10178000D000C004C005C006C00753917F9000CDB3
:10179000E0FEA3E0FF4E70035391FB9000C91218C6
:1017A000DB50099000CDE4F0A3F0800DC39000CE93
:1017B000E09DF09000CDE09CF0D007D006D005D0A1
:1017C00004D0D0D082D083D0E032AE05AD07E4FCA7
:1017D000FB7FAA121A70AF05121A70EE75F00DA4F5
:1017E000248DF582E4341CF583E493FFECC39F5011
:1017F0000774082CFC0B80F4EB04FF121A42E4FC83
:10180000ECC39B500974032C121A670C80F27F55AD
:10181000121A70021B8AAB07AA06900076E0FEA39C
:10182000E0FF120E0C40050C7DF48004AC06AD0701
:10183000AE04AF05C3900077E09FFD900076E09E78
:10184000FCC3ED9BEC9A5013A3E02FFF900076E0D1
:101850003EFEC3EB9FEA9E50028001C322AE07E426
:10186000FDF541121A40900001E0FF121A7090003D
:1018700001121A4A900078E0FF121A709000781254
:101880001A4A900081E0FF121A70900081121A4AE1
:1018900074032D121A670DBD03F67F55121A7002DC
:1018A0001B8AAB07AA06E4F9F87F407E427D0FFC55
:1018B000120AE8A804A905AA06AB077F207ED77DF7
:1018C000757C01120AE8C3E49FFFE49EFE22AB0789
:1018D000AA06E4F9F87FE87E03FD22E0FCA3E0FD20
:1018E000C3EF9DEE9C228F288D298A2A8B2B752E83
:1018F00080E5282480701EE4F52F120EEBAF2F1226
:101900001064EF6005852F2E8019052FE52FC394F5
:101910000940E7800E120EEBAF28121064EF60034F
:1019200085282EAF2E228F4190007AE0F5427F0B62
:10193000121B9343DA011200707D0A7C007F017E46
:10194000001219F0121B75E4900080F090007FF0F7
:10195000900095E541F090007AF0AF42229000AD02
:10196000E0FF9000ABE0B507057E017F002290000C
:10197000AB121A5CE0FD7C009000ABE004F0E0B438
:101980001402E4F09000AAE0FEEE4204E4F0AE049B
:10199000AF05228F548C558D568A578B58D290E5BF
:1019A00054640124FF92807F0A7E0012002E121BD5
:1019B00075C290E55424FF9280AD58AC577F0A7EE3
:1019C0000012002E021B758E288F298C2A8D2B1257
:1019D00018CE1218AF121AEA9000CBE52AF0A3E550
:1019E0002BF09000C7E528F0A3E529F043C80422B6
:1019F0008E438F448C458D461218CE1218AF121AA2
:101A0000F69000CDE545F0A3E546F09000C9E5432A
:101A1000F0A3E544F04391042212002A121B59124C
:101A20001B60121B1A121B7B121A8C121B38121B02
:101A300024121B2E121B02121B67121B7F021B6E2D
:101A40007FAA121A70AF06021A70A3E0FF021A7082
:101A5000E54125E02484F582E4340022E02496F573
:101A600082E43400F58322F582E43400F583E0FF5C
:101A7000C2039000AFE0B42002E4F09000AFE02495
:101A80005EF8A607E004F0A3E004F022AF885388D4
:101A9000AF758CA0758DCBEF5440FEEF54104E42C5
:101AA0008822D290EF24FF92807F0A7E0012002EBF
:101AB000021B75120E634006120EF8500109AF01A9
:101AC00022120E634006120EF8500109AF0122C324
:101AD000EF9414EE94054003D38001C322AE0712A5
:101AE0001A407F55121A70021B8AAD07AC06ECF53E
:101AF000CBAF058FCA22AD07AC06ECF593AF058FCF
:101B00009222C2DE75D90575F9FF75960122EE3075
:101B1000E707C3E49FFFE49EFE2275E34075E10101
:101B200075E20122E59154045391FB429122758E96
:101B30005475892243885022E5C8540453C8FB4297
:101B4000C822E5C8C320E201D322E591C320E20107
:101B5000D32253C8FB53C87F2275A41175D4CF225A
:101B600075A54175D5772253F77F75DA302275E672
:101B70009075A8B022E59120E2FB22E4F5A922436A
:101B80009810223003FD22C2DE22D299228F9922A0
:101B9000AF99228F8C2222222222011F00015E0196
:101BA000030301183C00000D040001720102020150
:101BB000283C0800081700018601030301183C00B7
:101BC000001F0A00012C01030301183C0000003B28
:101BD0000701F403020102403C00000712000190DB
:101BE00001030301183C000017010001C2010202B9
:101BF00001183C000124010000D2010202010C3C4A
:101C00000001110201012C01020201403C0000010F
:101C10001F00015E01030301183C00000D040001D8
:101C20007201020201283C08000817000186010326
:101C30000301183C00001F0A00012C0103030118D6
:101C40003C0000003B0701F403020102403C00009D
:101C5000071200019001030301183C000017010066
:101C600001C201020201183C000124010000D2015E
:101C70000202010C3C0001110201012C01020201CF
:101C8000403C0000011F00015E01030301183C00FD
:101C9000000D0400017201020201283C080008172F
:101CA00000018601030301183C00001F0A00012CFB
:101CB00001030301183C0000003B0701F40302018B
:101CC00002403C0000071200019001030301183C90
:101CD000000017010001C201020201183C000124AA
:101CE000010000D2010202010C3C000111020101BD
:091CF0002C01020201403C00003D
:00000001FF
